:0300000002020BEE
:0C020B00787FE4F6D8FD758151020252A4
:1000160020B14A7F0A7E001204FD30B1FDE52014AE
:10002600601A14602524027034741A2520F8E6C379
:100036009463500106AF1A12037A8021741A2520A0
:10004600F8E6C3943C500F06800C741A2520F8E697
:10005600C39409500106AD1CAF1B12051B20B41634
:1000660020B7137FCB1200067F0A7E001204FDE440
:10007600FD7F0212042320B51120B70E7F0A7E00F1
:100086001204FDE4FD7F0112042320B6487F0A7E98
:10009600001204FD30B6FDE5201460181460232418
:1000A600027032741A2520F8E6D39400400116AF88
:1000B6001A02037A741A2520F8E6D39400400F1624
:1000C600800C741A2520F8E6D39400400116AD1C66
:0600D600AF1B12051B2206
:1000DC0020B1457F0A7E001204FD30B1FDE52114EC
:1000EC0060151460202402702F741D2521F8E6C3BE
:1000FC009418501D06801A741D2521F8E6C3943CF3
:10010C00500106800CE51F7005751F018003E4F596
:10011C001FAD1EAF1D12029720B40E7F0A7E001277
:10012C0004FD7D017F0212042320B50E7F0A7E00A0
:10013C001204FD7D017F0112042320B6347F0A7E58
:10014C00001204FD30B6FDE52124FE60110470217F
:10015C00741D2521F8E6D39400400F16800CE51F82
:10016C007005751F018003E4F51FAD1EAF1D120253
:02017C009722C8
:07058B00D288D2A8D2AF22F2
:07059200D28AD2AAD2AF22E7
:10045E0012055F120495AF1A12037AAD1CAF1B1270
:10046E00051B74142520F8E6FF12000612058B12E8
:10047E00059230B704E52870077F0D12000680F252
:07048E007F0C12000680EB59
:030003000203D025
:1003D000C0E0C0F0C083C082C0D075D000C000C0F3
:1003E00001C002C003C004C005C006C007E528B4B0
:1003F00001091200167414252080071200DC7417FE
:100400002521F8E6FF120006D007D006D005D0045B
:10041000D003D002D001D000D0D0D082D083D0F091
:03042000D0E032F7
:0300130002017E69
:10017E00C0E0C0F0C083C082C0D075D000C000C047
:10018E0001C002C003C004C005C006C0077F0A7EBE
:10019E00001204FD20B341E528B4011B7528007F31
:1001AE00011200067F017E001204FD120578AD1EBD
:1001BE00AF1D12029780217528017F0112000612D1
:1001CE000495AF1A12037AAD1CAF1B12051B7414E3
:1001DE002520F8E6FF12000674172521F8E6FF1217
:1001EE000006D007D006D005D004D003D002D0012F
:0D01FE00D000D0D0D082D083D0F0D0E0323D
:10031F00061A323C00000000052973706565640AF7
:10032F002E64757479206379636C650E3874696D0A
:10033F00657365742020206820206D0C46636C6FF8
:10034F007365206F70656E20000A083031323334C8
:10035F003536373839061487CBCD898CC00220004B
:0A036F000007220001010101010155
:1004CA00C2A18F807F017E001204DBD2A27F057E4B
:0104DA000021
:1004DB00D3EF9400EE9400400F7DC77C01DCFEDD72
:0804EB00FAEF1F70EB1E80E820
:0104F30022E6
:0A000600C2A2C2A01204CAC2A222C4
:1005410012000674082513F8E6FF120555740825F4
:0405510012F8E6FFB7
:0A055500C2A2D2A01204CAC2A22260
:10055F007F381200067F0D1200067F061200067FFD
:09056F00011200067F8002000663
:0904F4007F801200067F017E00EA
:1004FD00D3EF9400EE940040147D6E7C00ED1D70E2
:0D050D00011CED4C70F7EF1F70E61E80E33F
:01051A0022BE
:10042300EF24FE600A04703274202DF806800C74E9
:10043300202DF806060674202DF81674202DF8E6F4
:1004430075F00384A6F074202DF8E6FFED75F00334
:0B045300A424142FF8E6FF120006227C
:100495001204F4E4FB74292BF8E6FF1205550BBB97
:1004A50005F37FC0120006E4FB742E2BF8E6FF125D
:1004B50005550BBB0AF37FCC1200067F2F1205559D
:0504C5007F8502000626
:100578001204F4E4FB74382BF8E6FF1205550BBBA4
:020588000EF370
:01058A00224E
:02029700AA05B6
:10029900EFD3941840027F18EAD3943C40027A3C89
:1002A900EFC394005002E4FFEAC394005002E4FA59
:1002B900EF75F00A84F513EF75F00A8485F0127F63
:1002C9000C1200067F88120541EA75F00A84F513BD
:1002D900EA75F00A8485F0127F8B1205417FC012FE
:1002E9000006E51FB401117B0674462BF8E6FF12E0
:1002F90005550BBB0BF3800FE4FB74462BF8E6FFA7
:100309001205550BBB05F37F0D1200067417252145
:06031900F8E6FF020006F9
:10037A00AB07EBC394644016E51424FEFF12000693
:10038A00AF09120555AF08120555AF088034EB7551
:10039A00F00A84F513EB75F00A8485F012E5137000
:1003AA0009E51414FF1200068011E51414FF120067
:1003BA000674082513F8E6FF12055574082512F885
:0603CA00E6FF12055522BA
:10051B00AB05EF75F00A84F513EF75F00A8485F0DF
:10052B0012E51514FF120541AF1612000674082BC5
:06053B00F8E6FF02055581
:1002170002045EE493A3F8E493A34003F68001F29B
:1002270008DFF48029E493A3F85407240CC8C333E8
:10023700C4540F4420C8834004F456800146F6DFB7
:10024700E4800B010204081020408090031FE47E25
:10025700019360BCA3FF543F30E509541FFEE493AC
:10026700A360010ECF54C025E060A840B8E493A373
:10027700FAE493A3F8E493A3C8C582C8CAC583CA9E
:10028700F0A3C8C582C8CAC583CADFE9DEE780BE56
:010379000083
:00000001FF
